:020000040000FA
:100000000C945D000C9485000C9485000C94850084
:100010000C9485000C9485000C9485000C9485004C
:100020000C9485000C9485000C9485000C9485003C
:100030000C9485000C9485000C9485000C9485002C
:100040000C941B060C9485000C948B060C9465068E
:100050000C9485000C9485000C9485000C9485000C
:100060000C94BD060C9485000000000800020100FD
:100070000003040700000000000000000000000072
:10008000250028002B0000000000240027002A0083
:10009000040404040404040402020202020203032E
:1000A0000303030301020408102040800102040836
:1000B0001020010204081020DC0711241FBECFEF1E
:1000C000D8E0DEBFCDBF11E0A0E0B1E0E8E2F5E1AD
:1000D00002C005900D92AC35B107D9F722E0ACE52E
:1000E000B1E001C01D92A53EB207E1F710E0CDE5F9
:1000F000D0E004C02197FE010E948C0ACC35D107C4
:10010000C9F70E9432080C94920A0C94000090E007
:10011000FC01EC55FF4F249180579F4FFC018491C7
:10012000882399F090E0880F991FFC01EA57FF4F50
:10013000A591B491FC01E458FF4F859194918FB73C
:10014000F894EC91E22BEC938FBF089590E0FC01C2
:10015000E859FF4F2491FC01EC55FF4F3491FC010D
:10016000E057FF4FE491EE23C9F0222339F023300A
:1001700001F1A8F4213019F1223029F1F0E0EE0F5D
:10018000FF1FE458FF4FA591B4918FB7F894EC91FD
:10019000611126C030953E233C938FBF08952730D0
:1001A000A9F02830C9F0243049F7809180008F7D74
:1001B00003C0809180008F7780938000DFCF84B56B
:1001C0008F7784BDDBCF84B58F7DFBCF8091B0006E
:1001D0008F778093B000D2CF8091B0008F7DF9CF20
:1001E0003E2BDACF3FB7F8948091D0019091D101A6
:1001F000A091D201B091D30126B5A89B05C02F3F95
:1002000019F00196A11DB11D3FBFBA2FA92F982F3C
:100210008827BC01CD01620F711D811D911D42E037
:10022000660F771F881F991F4A95D1F70895089583
:10023000CF93DF93EC01E091A401F091A5013097F9
:10024000F1F09091A7018091A6019817C0F090E07D
:10025000292F30E02617370754F4DE01A20FB31F11
:100260004C9128553E4FD9014C939F5FF1CF10928E
:10027000A7016093A601CB01DF91CF910994DF9193
:10028000CF910895AF92BF92CF92DF92EF92FF92FB
:100290000F931F93CF93DF936C017B018B01040FAE
:1002A000151FEB015E01AE18BF08C017D10759F04A
:1002B0006991D601ED91FC910190F081E02DC6018C
:1002C0000995892B79F7C501DF91CF911F910F9186
:1002D000FF90EF90DF90CF90BF90AF900895FC011A
:1002E000538D448D252F30E0842F90E0821B930B9B
:1002F000541710F0CF96089501970895FC01918D41
:10030000828D981761F0A28DAE0FBF2FB11D5D9643
:100310008C91928D9F5F9F73928F90E008958FEFE5
:100320009FEF0895FC01918D828D981731F0828D99
:10033000E80FF11D858D90E008958FEF9FEF0895F0
:10034000FC01918D228D892F90E0805C9F4F821B54
:1003500091098F739927089584E292E00E94A00189
:1003600021E0892B09F420E0822F089580E090E0BD
:10037000892B29F00E94AC0181110C940000089592
:10038000FC01A48DA80FB92FB11DA35ABF4F2C910A
:10039000848D90E001968F739927848FA689B78901
:1003A0002C93A089B1898C91837080648C93938DF8
:1003B000848D981306C00288F389E02D80818F7D9B
:1003C00080830895EF92FF920F931F93CF93DF9353
:1003D000EC0181E0888F9B8D8C8D98131AC0E88981
:1003E000F989808185FF15C09FB7F894EE89FF8950
:1003F0006083E889F98980818370806480839FBFEE
:1004000081E090E0DF91CF911F910F91FF90EF90ED
:100410000895F62E0B8D10E00F5F1F4F0F731127FD
:10042000E02E8C8D8E110CC00FB607FCFACFE88938
:10043000F989808185FFF5CFCE010E94C001F1CFFF
:10044000EB8DEC0FFD2FF11DE35AFF4FF0829FB7AC
:10045000F8940B8FEA89FB8980818062CFCFCF939C
:10046000DF93EC01888D8823B9F0AA89BB89E889DC
:10047000F9898C9185FD03C0808186FD0DC00FB682
:1004800007FCF7CF8C9185FFF2CF808185FFEDCF00
:10049000CE010E94C001E9CFDF91CF910895209154
:1004A0007D01260F3327331F21323105ECF42091D3
:1004B000FA01FC0190E080E0243069F082E00895C8
:1004C000A0917D012191AC01435A5E4FA40FB52F3D
:1004D000B11D2C930196861798F380917D01680FCA
:1004E00060937D0180E0089581E008951092FA0103
:1004F00081E08093F9011092D40161E082E10E94D1
:10050000A60061E083E10E94A600E9EBF0E08081B3
:100510008E7F808380818D7F808388E48093B80084
:1005200085E48093BC000895CF93DF9391E090938E
:100530005C018823B9F0C091B800D091BA008091D5
:10054000BC008A7B8093BC0060E082E10E94A60030
:1005500060E083E10E94A6000E947602D093BA0078
:10056000C093B800DF91CF910895CF92DF92EF92C0
:10057000FF920F931F93CF93DF93D091230281E0DB
:10058000D13208F09CC0C09122020E94F2006B019F
:100590007C018091FA0181116CC082E08093FA01A4
:1005A00081E08093F9018FEF8093F8011092F701B9
:1005B000D093F601A2E0B2E0E6EDF1E080E0D813DE
:1005C0008DC01092D5018091D501CC0FC82BC0935E
:1005D000D5018091D401813009F084C01092D401FA
:1005E0000E94F2006B017C018091D5018093BB00D9
:1005F0008091FC019091FD01A091FE01B091FF015D
:10060000892B8A2B8B2BA1F00E94F2000091FC0118
:100610001091FD012091FE013091FF016C197D09BF
:100620008E099F09061717072807390708F442C0E3
:100630008091BC0083FDD8CF85EC8093BC000E94E4
:10064000F2006B017C018091FA01823009F44CC008
:100650008091F8018F3F09F469C08091F8018032E0
:1006600009F466C08091F801803309F463C084E026
:1006700026C08091FC019091FD01A091FE01B091F6
:10068000FF01892B8A2B8B2B09F483CF0E94F20068
:100690000091FC011091FD012091FE013091FF01BC
:1006A0006C197D098E099F09061717072807390756
:1006B00008F06FCF8091FB010E94940285E01092B8
:1006C00001021092230210920002DF91CF911F913C
:1006D0000F91FF90EF90DF90CF9008959D919193AF
:1006E0008F5F6DCF85EEA9CF8091FC019091FD01C8
:1006F000A091FE01B091FF01892B8A2B8B2B09F46D
:10070000A2CF0E94F2000091FC011091FD01209106
:10071000FE013091FF016C197D098E099F090617B2
:1007200017072807390708F08ECFC4CF80E0C7CF5E
:1007300082E0C5CF83E0C3CF0895E091A701809107
:10074000A601E81730F4F0E0E855FE4F808190E014
:1007500008958FEF9FEF08959091A7018091A601D2
:100760002FEF3FEF981748F4E92FF0E0E855FE4FE0
:10077000208130E09F5F9093A701C901089581EC2B
:1007800092E00E94AC038093CA0108958091A60173
:100790009091A701891B990B0895CF92DF92EF9258
:1007A000FF920F931F93CF93DF937C01CB018A01BC
:1007B00020910002222389F0EB016B01C40ED51EAB
:1007C000CC15DD0569F06991D701ED91FC9101909F
:1007D000F081E02DC7010995F3CF642F0E944F02ED
:1007E000C801DF91CF911F910F91FF90EF90DF90A3
:1007F000CF900895CF93DF931F92CDB7DEB7698373
:10080000209100022223F9F020912302203258F097
:1008100021E030E0FC013383228390E080E00F9000
:10082000DF91CF91089580910102E82FF0E0EE5F13
:10083000FD4F998190838F5F809301028093230203
:1008400081E090E0ECCF61E0CE0101960E944F0282
:10085000F7CF682F81EC92E00C94FA03089590E0B2
:1008600080E008958F929F92AF92BF920F931F9353
:10087000CF93DF93CDB7DEB7A1970FB6F894DEBF65
:100880000FBECDBF19A2423008F44AE08E010F5DC1
:100890001F4F842E912CB12CA12CA50194010E94F4
:1008A0006A0AE62FB901CA01EA3044F5E05DD801D1
:1008B000EE938D01232B242B252B79F790E080E0FC
:1008C000109769F0FD0101900020E9F73197AF0121
:1008D0004A1B5B0BBD018DEC92E00E944201A19688
:1008E0000FB6F894DEBF0FBECDBFDF91CF911F9141
:1008F0000F91BF90AF909F908F900895E95CD7CFF4
:10090000FC0101900020E9F73197AF01481B590B1A
:10091000BC018DEC92E00C944201CF93DF93EC018B
:1009200060E08E810E94A60061E08E810E94A60098
:1009300060E08E810E94A6008BE891E00197F1F7BC
:10094000DF91CF910895CF92DF92EF92FF920F93B4
:100950001F93CF93DF936C017C0187E0E80EF11CBD
:10096000D0E0C0E0062F10E0B8010C2E02C0759553
:1009700067950A94E2F76170F70181917F010E9407
:10098000A6002196C430D10579F7C601DF91CF9139
:100990001F910F91FF90EF90DF90CF900C948D04FA
:1009A000CF92DF92EF92FF920F931F93CF93DF933B
:1009B000EC01F62E642F8C810E94A6008D818F3F62
:1009C00019F060E00E94A6000F2D10E08F8584FFD3
:1009D00025C06E0187E0C80ED11CF12CE12CB801B6
:1009E0000E2C02C0759567950A94E2F76170F601C6
:1009F00081916F010E94A600FFEFEF1AFF0A88E0C5
:100A0000E816F10461F7CE01DF91CF911F910F91AC
:100A1000FF90EF90DF90CF900C948D04B80184E0AC
:100A2000759567958A95E1F7CE010E94A3046F2D15
:100A3000CE01DF91CF911F910F91FF90EF90DF904A
:100A4000CF900C94A30440E0682F8DEC92E00C94BE
:100A5000D00481E00E9423058BE39FE10197F1F729
:100A60000895CF93DF93823029F49091DC0298604F
:100A70009093DC028093E0021092E10280E4809384
:100A8000E20280E18093E30280E58093E4028091BA
:100A9000D1020E9487008091D2028F3F11F00E9404
:100AA00087008091D3020E948700CDECD2E09E01A6
:100AB0002D5C32408091DC0284FD0AC084E090E02D
:100AC0002196281739073CF48E810E948700EFCFCA
:100AD00088E090E0F5CF8BE39DE00197F1F760E0CF
:100AE0008091D1020E94A60060E08091D3020E9412
:100AF000A6008091D2028F3F19F060E00E94A6000C
:100B00008091DC0284FD34C063E08DEC92E00E94B1
:100B1000A304CBE4D6E4CE010197F1F763E08DECBA
:100B200092E00E94A3042197F1F763E08DEC92E03C
:100B30000E94A30483E592E00197F1F762E08DEC57
:100B400092E00E94A3048091DC0280620E9423054F
:100B500084E08093DD028CE00E9423050E94290539
:100B600082E08093DE0286E0DF91CF910C94230532
:100B700080620E9423058BE496E40197F1F780914F
:100B8000DC0280620E94230583E592E00197F1F781
:100B90008091DC0280620E942305D5CF9091E00213
:100BA000691710F06FEF690FE62FF0E0E353FD4F88
:100BB0009489890F80680C94230541E00E94D00439
:100BC00081E090E0089585ED8093BC008091FC0168
:100BD0009091FD01A091FE01B091FF010796A11D2A
:100BE000B11D23E0B695A795979587952A95D1F7DE
:100BF0002091BC0024FD03C01092FA010895409199
:100C0000FC015091FD016091FE017091FF01452BA7
:100C1000462B472B69F30097A105B10541F02AE265
:100C20002A95F1F700C00197A109B109E1CF8091A0
:100C3000FB010C9494021F920F920FB60F92112495
:100C40002F933F938F939F93AF93BF938091CC014A
:100C50009091CD01A091CE01B091CF013091CB0107
:100C600023E0230F2D3758F50196A11DB11D2093C8
:100C7000CB018093CC019093CD01A093CE01B09392
:100C8000CF018091D0019091D101A091D201B0917A
:100C9000D3010196A11DB11D8093D0019093D10184
:100CA000A093D201B093D301BF91AF919F918F9147
:100CB0003F912F910F900FBE0F901F90189526E82F
:100CC000230F0296A11DB11DD2CF1F920F920FB616
:100CD0000F9211242F933F934F935F936F937F93C2
:100CE0008F939F93AF93BF93EF93FF9384E292E030
:100CF0000E94C001FF91EF91BF91AF919F918F91A1
:100D00007F916F915F914F913F912F910F900FBE07
:100D10000F901F9018951F920F920FB60F921124EB
:100D20002F938F939F93EF93FF93E0913402F09171
:100D300035028081E0913A02F0913B0282FD1BC0B6
:100D4000908180913D028F5F8F7320913E028217C8
:100D500041F0E0913D02F0E0EC5DFD4F958F809316
:100D60003D02FF91EF919F918F912F910F900FBEB8
:100D70000F901F9018958081F4CF1F920F920FB69D
:100D80000F9211242F933F934F935F936F937F9311
:100D90008F939F93AF93BF93EF93FF938091B9008D
:100DA000887F803609F44AC0F0F5883209F4A7C07C
:100DB00018F5803109F49BC0B8F4882309F4F9C010
:100DC000883009F494C0FF91EF91BF91AF919F914A
:100DD0008F917F916F915F914F913F912F910F90E4
:100DE0000FBE0F901F901895883109F488C080328B
:100DF00051F78093F80114C0803409F49DC040F489
:100E00008033B9F38833F9F68093F80185ECB0C0EC
:100E1000803509F485C0883509F496C0883499F680
:100E20000E94E305D0CF883909F48CC038F58837A3
:100E300029F050F4883611F0803729F683E080934A
:100E4000FA0110929F0157C0883809F47BC080399D
:100E500019F0803809F0B7CF80919F01803208F0F7
:100E600071C0E0919F0181E08E0F80939F0180917E
:100E7000BB00F0E0E158FE4F80833DC0803B39F07D
:100E8000E0F4803A09F479C0883A09F09CCF84E014
:100E90008093FA0110927E0110927D01E091A201EF
:100EA000F091A301099580917D0181110FC081E02E
:100EB00080937D0110925D0109C0803C09F4A6CFAA
:100EC000883C09F4A3CF883B09F07DCFE0917E01F7
:100ED00081E08E0F80937E01F0E0E35AFE4F808127
:100EE0008093BB0090917E0180917D0129C080910B
:100EF000D5018093BB0085EC8093BC0064CF9091BA
:100F0000F7018091F601981758F5E091F70181E01B
:100F10008E0F8093F701F0E0EA52FE4F8081E9CF17
:100F2000E091F70181E08E0F8093F7018091BB0083
:100F3000F0E0EA52FE4F80839091F7018091F60134
:100F40009817C8F285E8D8CFE091F70181E08E0FBD
:100F50008093F7018091BB00F0E0EA52FE4F80835E
:100F60008091F90181115CCF81E08093D40184EA02
:100F70008093BC001092FA0126CF85EC8093BC00D0
:100F80001092FA0180919F01803230F4E0919F012C
:100F9000F0E0E158FE4F108260919F0170E0E09117
:100FA000A001F091A1018FE791E0099510929F01B6
:100FB0000ACF1092F80134CFE4E2F2E013821282F9
:100FC00088EE93E0A0E0B0E084839583A683B783A6
:100FD00024E031E03183208325EC30E0358724871D
:100FE00024EC30E03787268720EC30E0318B208BF3
:100FF00021EC30E0338B228B22EC30E0358B248BDC
:1010000026EC30E0378B268B118E128E138E148EC9
:10101000E1ECF2E01382128284839583A683B78386
:1010200086E191E091838083EDECF2E013821282FD
:1010300088E291E0918380838CE084838FEF8583C5
:101040008BE0868385E0878384E0808783E08187E7
:1010500082E082871386148615861686178681E0BD
:101060000C943105789484B5826084BD84B5816028
:1010700084BD85B5826085BD85B5816085BD809163
:101080006E00816080936E001092810080918100DB
:1010900082608093810080918100816080938100D3
:1010A000809180008160809380008091B100846095
:1010B0008093B1008091B00081608093B0008091F6
:1010C0007A00846080937A0080917A0082608093B5
:1010D0007A0080917A00816080937A0080917A0012
:1010E000806880937A001092C1001092A70110923C
:1010F000A6010E94760287E191E09093A30180937C
:10110000A20188E191E09093A1018093A0018EE279
:101110008093BA00E0913402F091350282E080833E
:10112000E0913002F09131021082E0913202F091B0
:1011300033028FEC808310923C02E0913802F091F0
:10114000390286E08083E0913602F0913702808197
:1011500080618083E0913602F0913702808188605F
:101160008083E0913602F09137028081806880832D
:10117000E0913602F091370280818F7D80838FEB82
:1011800093E09093A5018093A40182E00E94310531
:1011900081E08093000288E4809322021092010291
:1011A000109223028CEA90E00E94290482E090E0F1
:1011B0000E94290410920102109223028EEE90E008
:1011C0000E9429040E94B50286E00E94870087E001
:1011D0000E94870060E086E00E94A60060E087E051
:1011E0000E94A60005EE95ECB92EC0E0D0E011E01B
:1011F00028E4A22E99249A948091CA01813609F09C
:1012000064C110930002A092220210920102109277
:1012100023028AEA90E00E9429040E94B5020E94FB
:10122000F2006B017C018091FA01811160C0109382
:10123000FA011093F9019092F8011092F7011092BF
:10124000F6011093D5018091D50180698093D50175
:101250008091D401813009F0C1C01092D4010E9464
:10126000F2006B017C018091D5018093BB008091DD
:10127000FC019091FD01A091FE01B091FF01892B2D
:101280008A2B8B2BA1F00E94F2004090FC01509021
:10129000FD016090FE017090FF016C197D098E09BF
:1012A0009F09461657066806790608F441C08091E2
:1012B000BC0083FDD8CFB092BC000E94F2006B014D
:1012C0007C018091FA01813009F48BC08091F70193
:1012D0008111A9C08091F701E6EDF1E0A8EAB1E043
:1012E00090E0981751F121912D939F5FFACF809153
:1012F000FC019091FD01A091FE01B091FF01892BAD
:101300008A2B8B2B09F48FCF0E94F2004090FC01B6
:101310005090FD016090FE017090FF016C197D09F5
:101320008E099F09461657066806790608F07BCF96
:101330008091FB010E94940280E01092A7018093AB
:10134000A60181EC92E00E94AC039093C9018093C6
:10135000C8010E94290560E080E00E94CE0580E37C
:1013600091E00E948004C090C801D090C9010D2C6A
:10137000000CEE08FF084AE0C701B601F7FE0EC0F8
:1013800041E06DE28DEC92E00E94D0046627772761
:10139000CB016C197D098E099F094AE00E94320435
:1013A00060E088E00E94CE0560E08DEC92E00E9453
:1013B000DD0586E391E00E9480048091C801909150
:1013C000C901833191058CF561E080E00E94CE0572
:1013D00088E391E00E94800460E033C00093BC0089
:1013E0006CCF8091FC019091FD01A091FE01B09124
:1013F000FF01892B8A2B8B2B09F463CF0E94F2000B
:101400004090FC015090FD016090FE017090FF0142
:101410006C197D098E099F094616570668067906DC
:1014200008F04FCF85CF81E057CF439761E0069713
:1014300068F480E00E94CE0581E491E00E9480047F
:1014400061E086E00E94A60060E00CC080E00E949F
:10145000CE058AE491E00E94800461E086E00E946B
:10146000A60061E087E00E94A6000E94F2002B0126
:101470003C0184EFC82EDD24D394E12CF12C0E9492
:10148000F2006419750986099709683E7340810561
:101490009105A8F321E0C21AD108E108F10888EE0D
:1014A000480E83E0581E611C711CC114D104E10474
:1014B000F10429F7209709F49FCE0E94AC018823FC
:1014C00009F49ACE0E94000097CE0E94290583E578
:1014D00091E080CFA1E21A2EAA1BBB1BFD010DC01B
:1014E000AA1FBB1FEE1FFF1FA217B307E407F507D4
:1014F00020F0A21BB30BE40BF50B661F771F881FB0
:10150000991F1A9469F760957095809590959B0145
:10151000AC01BD01CF010895EE0FFF1F0590F491BE
:10152000E02D0994F894FFCF00000000E201420191
:101530006F012F02A0017E01920100000000FA035A
:10154000CD032F049C03C603AC039D0300000000E1
:10155000DD0542012F042E0454656D703A004300EE
:101560004E6976656C3A2031004E6976656C3A209A
:1015700032004E6976656C3A2033004170616761D4
:04158000646F000094
:107E0000112484B714BE81FFF0D085E080938100F7
:107E100082E08093C00088E18093C10086E0809377
:107E2000C20080E18093C4008EE0C9D0259A86E02C
:107E300020E33CEF91E0309385002093840096BBD3
:107E4000B09BFECF1D9AA8958150A9F7CC24DD24C4
:107E500088248394B5E0AB2EA1E19A2EF3E0BF2EE7
:107E6000A2D0813461F49FD0082FAFD0023811F036
:107E7000013811F484E001C083E08DD089C08234E0
:107E800011F484E103C0853419F485E0A6D080C0E4
:107E9000853579F488D0E82EFF2485D0082F10E0AE
:107EA000102F00270E291F29000F111F8ED06801E7
:107EB0006FC0863521F484E090D080E0DECF843638
:107EC00009F040C070D06FD0082F6DD080E0C81688
:107ED00080E7D80618F4F601B7BEE895C0E0D1E017
:107EE00062D089930C17E1F7F0E0CF16F0E7DF06D8
:107EF00018F0F601B7BEE89568D007B600FCFDCFD4
:107F0000A601A0E0B1E02C9130E011968C91119780
:107F100090E0982F8827822B932B1296FA010C0160
:107F200087BEE89511244E5F5F4FF1E0A038BF0790
:107F300051F7F601A7BEE89507B600FCFDCF97BE46
:107F4000E89526C08437B1F42ED02DD0F82E2BD052
:107F50003CD0F601EF2C8F010F5F1F4F84911BD097
:107F6000EA94F801C1F70894C11CD11CFA94CF0C13
:107F7000D11C0EC0853739F428D08EE10CD085E9AC
:107F80000AD08FE07ACF813511F488E018D01DD067
:107F900080E101D065CF982F8091C00085FFFCCF94
:107FA0009093C60008958091C00087FFFCCF809118
:107FB000C00084FD01C0A8958091C6000895E0E648
:107FC000F0E098E1908380830895EDDF803219F02E
:107FD00088E0F5DFFFCF84E1DECF1F93182FE3DFCA
:107FE0001150E9F7F2DF1F91089580E0E8DFEE27F6
:047FF000FF270994CA
:027FFE00040479
:00000001FF
