:020000040000FA
:100000000C9462000C948A000C948A000C948A0070
:100010000C948A000C948A000C948A000C948A0038
:100020000C948A000C948A000C948A000C948A0028
:100030000C948A000C948A000C948A000C948A0018
:100040000C94ED050C948A000C945D060C94370614
:100050000C948A000C948A000C948A000C948A00F8
:100060000C948F060C948A000000000024002700E6
:100070002A0000000000250028002B0000000000DE
:1000800023002600290004040404040404040202DA
:100090000202020203030303030301020408102007
:1000A0004080010204081020010204081020000012
:1000B0000008000201000003040700000000000027
:1000C0000000AE0711241FBECFEFD8E0DEBFCDBFCA
:1000D00011E0A0E0B1E0EAE6F6E102C005900D9281
:1000E000AE39B107D9F723E0AEE9B1E001C01D9206
:1000F000AE38B207E1F710E0C2E6D0E004C02197C5
:10010000FE010E942D0BC136D107C9F70E9463087A
:100110000C94330B0C94000096E0899FD0011124BD
:10012000A15EBC4F90967C936E935F9791E0919601
:100130009C939197E0918C03F0918D0390918B03A8
:10014000992339F0309751F0811108C080913B0319
:100150000994309719F05C968C91FACF0895CF925C
:10016000DF92EF92FF920F931F9396E0899FF00129
:100170001124E15EFC4F11A2278D30A12130310501
:1001800051F178F02230310509F451C023303105A6
:1001900009F452C01F910F91FF90EF90DF90CF9024
:1001A00008956623B9F361E070E00E948C002FB7D8
:1001B000F8948091160290911702A0911802B091C4
:1001C00019022FBF8093770390937803A09379034C
:1001D000B0937A03DFCF9FB7F894C0901602D09007
:1001E0001702E0901802F09019029FBF0091770368
:1001F000109178032091790330917A03C01AD10AC3
:10020000E20AF30A0091890310918A0330E020E0AA
:100210000C151D052E053F0550F462E070E01F919E
:100220000F91FF90EF90DF90CF900C948C006111B4
:10023000B1CF63E070E0F3CF70E060E0F0CF8330E7
:1002400081F028F4813099F08230A9F00895873048
:10025000A9F08830C9F08430B1F4809180008F7D9E
:1002600003C0809180008F7780938000089584B5CB
:100270008F7784BD089584B58F7DFBCF8091B000CA
:100280008F778093B00008958091B0008F7DF9CF73
:10029000CF93DF93282F30E0F901E255FF4F84918F
:1002A000F901E656FF4FD491F901EA57FF4FC49187
:1002B000CC23A1F081110E941F01EC2FF0E0EE0F82
:1002C000FF1FE458FF4FA591B491EC91ED2381E01D
:1002D00090E009F480E0DF91CF91089580E090E014
:1002E000FACF1F93CF93DF93282F30E0F901E25527
:1002F000FF4F8491F901E656FF4FD491F901EA5777
:10030000FF4FC491CC23A9F0162F81110E941F0129
:10031000EC2FF0E0EE0FFF1FEE58FF4FA591B491C8
:100320008FB7F894EC91111108C0D095DE23DC93BF
:100330008FBFDF91CF911F910895DE2BF8CFCF9320
:10034000DF9390E0FC01E656FF4F24918A579F4FC0
:10035000FC0184918823C9F090E0880F991FFC016B
:10036000E859FF4FA591B491FC01EE58FF4FC5919C
:10037000D49161110DC09FB7F8948C912095822380
:100380008C938881282328839FBFDF91CF91089584
:10039000623051F49FB7F8943C91822F809583236B
:1003A0008C93E8812E2BEFCF8FB7F894EC912E2B06
:1003B0002C938FBFEACF3FB7F894809112029091AF
:1003C0001302A0911402B091150226B5A89B05C096
:1003D0002F3F19F00196A11DB11D3FBFBA2FA92FC4
:1003E000982F8827BC01CD01620F711D811D911DC1
:1003F00042E0660F771F881F991F4A95D1F708952D
:100400008F929F92AF92BF92CF92DF92EF92FF9224
:100410004B015C010E94DB016B017C010E94DB014E
:100420006C197D098E099F09683E7340810591050D
:10043000A8F321E0821A9108A108B10888EEC80E3D
:1004400083E0D81EE11CF11C81149104A104B104C5
:1004500029F7FF90EF90DF90CF90BF90AF909F90E3
:100460008F900895862F642F0C949F01862F642F00
:100470000C947101862F0C94480108950895AF9251
:10048000BF92CF92DF92EF92FF920F931F93CF9381
:10049000DF936C017B018B01040F151FEB015E01E3
:1004A000AE18BF08C017D10759F06991D601ED9178
:1004B000FC910190F081E02DC6010995892B79F717
:1004C000C501DF91CF911F910F91FF90EF90DF90C9
:1004D000CF90BF90AF900895FC01538D448D252F90
:1004E00030E0842F90E0821B930B541710F0CF96CE
:1004F000089501970895FC01918D828D981761F000
:10050000A28DAE0FBF2FB11D5D968C91928D9F5F16
:100510009F73928F90E008958FEF9FEF0895FC01F5
:10052000918D828D981731F0828DE80FF11D858DA8
:1005300090E008958FEF9FEF0895FC01918D228D3B
:10054000892F90E0805C9F4F821B91098F739927C0
:1005500008958AE692E00E949D0221E0892B09F429
:1005600020E0822F089580E090E0892B29F00E94FE
:10057000A90281110C9400000895FC01A48DA80F1C
:10058000B92FB11DA35ABF4F2C91848D90E00196D5
:100590008F739927848FA689B7892C93A089B189F5
:1005A0008C91837080648C93938D848D981306C096
:1005B0000288F389E02D80818F7D80830895EF92FA
:1005C000FF920F931F93CF93DF93EC0181E0888F0D
:1005D0009B8D8C8D98131AC0E889F989808185FFDD
:1005E00015C09FB7F894EE89FF896083E889F9897F
:1005F00080818370806480839FBF81E090E0DF9181
:10060000CF911F910F91FF90EF900895F62E0B8DD3
:1006100010E00F5F1F4F0F731127E02E8C8D8E118E
:100620000CC00FB607FCFACFE889F989808185FFF5
:10063000F5CFCE010E94BD02F1CFEB8DEC0FFD2F67
:10064000F11DE35AFF4FF0829FB7F8940B8FEA89B0
:10065000FB8980818062CFCFCF93DF93EC01888DBF
:100660008823B9F0AA89BB89E889F9898C9185FD2D
:1006700003C0808186FD0DC00FB607FCF7CF8C91BB
:1006800085FFF2CF808185FFEDCFCE010E94BD02B4
:10069000E9CFDF91CF91089508952091DF01260FD2
:1006A0003327331F21323105ECF420914002FC0145
:1006B00090E080E0243069F082E00895A091DF01AD
:1006C0002191AC0141545E4FA40FB52FB11D2C9365
:1006D0000196861798F38091DF01680F6093DF0120
:1006E00080E0089581E008951092400281E08093B7
:1006F0003F0210921A0261E082E10E94710161E002
:1007000083E10E947101E9EBF0E080818E7F8083BC
:1007100080818D7F808388E48093B80085E4809316
:10072000BC000895CF93DF9391E09093BE0188239E
:10073000B9F0C091B800D091BA008091BC008A7B1A
:100740008093BC0060E082E10E94710160E083E17F
:100750000E9471010E947403D093BA00C093B80044
:10076000DF91CF910895CF92DF92EF92FF920F9396
:100770001F93CF93DF93D091690281E0D13208F0CB
:100780009CC0C09168020E94DB016B017C018091DA
:10079000400281116CC082E08093400281E080932E
:1007A0003F028FEF80933E0210923D02D0933C02B5
:1007B000A8E4B2E0ECE1F2E080E0D8138DC0109242
:1007C0001B0280911B02CC0FC82BC0931B0280918F
:1007D0001A02813009F084C010921A020E94DB01D3
:1007E0006B017C0180911B028093BB0080914202CF
:1007F00090914302A0914402B0914502892B8A2B2B
:100800008B2BA1F00E94DB01009142021091430268
:1008100020914402309145026C197D098E099F098F
:10082000061717072807390708F442C08091BC0053
:1008300083FDD8CF85EC8093BC000E94DB016B0167
:100840007C0180914002823009F44CC080913E02CC
:100850008F3F09F469C080913E02803209F466C07E
:1008600080913E02803309F463C084E026C0809109
:10087000420290914302A0914402B0914502892B1B
:100880008A2B8B2B09F483CF0E94DB01009142025B
:100890001091430220914402309145026C197D0968
:1008A0008E099F09061717072807390708F06FCF29
:1008B000809141020E94920385E0109247021092BB
:1008C000690210924602DF91CF911F910F91FF9024
:1008D000EF90DF90CF9008959D9191938F5F6DCFB2
:1008E00085EEA9CF8091420290914302A0914402EB
:1008F000B0914502892B8A2B8B2B09F4A2CF0E9441
:10090000DB01009142021091430220914402309198
:1009100045026C197D098E099F09061717072807DC
:10092000390708F08ECFC4CF80E0C7CF82E0C5CFB3
:1009300083E0C3CF0895E091070280910602E81793
:1009400030F4F0E0E256FE4F808190E008958FEFA2
:100950009FEF089590910702809106022FEF3FEFDD
:10096000981748F4E92FF0E0E256FE4F208130E07E
:100970009F5F90930702C9010895809106029091AC
:100980000702891B990B0895CF92DF92EF92FF9295
:100990000F931F93CF93DF937C01CB018A012091AA
:1009A0004602222389F0EB016B01C40ED51ECC1543
:1009B000DD0569F06991D701ED91FC910190F0811D
:1009C000E02DC7010995F3CF642F0E944D03C801A4
:1009D000DF91CF911F910F91FF90EF90DF90CF901B
:1009E0000895CF93DF931F92CDB7DEB7698320912F
:1009F00046022223F9F020916902203258F021E0CA
:100A000030E0FC013383228390E080E00F90DF919F
:100A1000CF91089580914702E82FF0E0E85BFD4F09
:100A2000998190838F5F809347028093690281E070
:100A300090E0ECCF61E0CE0101960E944D03F7CF2C
:100A4000FC01248131E03093460220936802109229
:100A50004702109269028385682B87E093E00E9429
:100A6000F1040C94B30390E080E00895FC01019040
:100A70000020E9F73197AF01481B590BBC0183E116
:100A800093E00C943F020F931F93CF938C01C62FDA
:100A90000E9420056C2F6460C8010E9420056C2F05
:100AA0006B7FC8010E94200583EC90E00197F1F76D
:100AB000CF911F910F9108950F931F93CF93DF93C1
:100AC0008C01D62FC42F607F642B0E94430580E1E8
:100AD000D89FB00111246C2BC801DF91CF911F91D9
:100AE0000F910C944305CF93DF93CDB7DEB72897D2
:100AF0000FB6F894DEBF0FBECDBF98E0E3E1F1E0A2
:100B0000DE01119601900D929A95E1F790911B03E9
:100B1000981708F48FEF90E0880F991F21E030E0DC
:100B20002C0F3D1F820F931FFC016081606840E025
:100B300083E193E028960FB6F894DEBF0FBECDBFD9
:100B4000DF91CF910C945C0540E061E083E193E09C
:100B50000E945C058BE39FE10197F1F7089541E066
:100B60000E945C0581E090E0089585ED8093BC00D3
:100B70008091420290914302A0914402B0914502BB
:100B80000796A11DB11D23E0B695A795979587956A
:100B90002A95D1F72091BC0024FD03C01092400299
:100BA0000895409142025091430260914402709135
:100BB0004502452B462B472B69F30097A105B1054C
:100BC00041F02AE22A95F1F700C00197A109B10985
:100BD000E1CF809141020C9492031F920F920FB6C5
:100BE0000F9211242F933F938F939F93AF93BF93B3
:100BF0008091160290911702A0911802B0911902EB
:100C00003091110223E0230F2D3758F50196A11DD5
:100C1000B11D209311028093160290931702A093A6
:100C20001802B09319028091120290911302A091C0
:100C30001402B09115020196A11DB11D80931202FC
:100C400090931302A0931402B0931502BF91AF9139
:100C50009F918F913F912F910F900FBE0F901F90FA
:100C6000189526E8230F0296A11DB11DD2CF1F9221
:100C70000F920FB60F9211242F933F934F935F93D0
:100C80006F937F938F939F93AF93BF93EF93FF9354
:100C90008AE692E00E94BD02FF91EF91BF91AF9171
:100CA0009F918F917F916F915F914F913F912F9184
:100CB0000F900FBE0F901F9018951F920F920FB6B6
:100CC0000F9211242F938F939F93EF93FF93E091B3
:100CD0007A02F0917B028081E0918002F0918102A2
:100CE00082FD1BC09081809183028F5F8F73209162
:100CF0008402821741F0E0918302F0E0E659FD4F53
:100D0000958F80938302FF91EF919F918F912F9107
:100D10000F900FBE0F901F9018958081F4CF1F92F7
:100D20000F920FB60F9211242F933F934F935F931F
:100D30006F937F938F939F93AF93BF93EF93FF93A3
:100D40008091B900887F803609F44AC0F0F5883276
:100D500009F4A7C018F5803109F49BC0B8F48823C2
:100D600009F4F9C0883009F494C0FF91EF91BF9164
:100D7000AF919F918F917F916F915F914F913F9133
:100D80002F910F900FBE0F901F901895883109F486
:100D900088C0803251F780933E0214C0803409F439
:100DA0009DC040F48033B9F38833F9F680933E0256
:100DB00085ECB0C0803509F485C0883509F496C04B
:100DC000883499F60E94B505D0CF883909F48CC0D3
:100DD00038F5883729F050F4883611F0803729F635
:100DE00083E0809340021092010257C0883809F4D2
:100DF0007BC0803919F0803809F0B7CF80910102AB
:100E0000803208F071C0E091010281E08E0F809382
:100E100001028091BB00F0E0EF51FE4F80833DC0A6
:100E2000803B39F0E0F4803A09F479C0883A09F05F
:100E30009CCF84E0809340021092E0011092DF0189
:100E4000E0910202F091030209958091DF01811186
:100E50000FC081E08093DF011092BF0109C0803C88
:100E600009F4A6CF883C09F4A3CF883B09F07DCFD5
:100E7000E091E00181E08E0F8093E001F0E0E15429
:100E8000FE4F80818093BB009091E0018091DF0153
:100E900029C080911B028093BB0085EC8093BC002D
:100EA00064CF90913D0280913C02981758F5E091F3
:100EB0003D0281E08E0F80933D02F0E0E45EFD4F45
:100EC0008081E9CFE0913D0281E08E0F80933D0269
:100ED0008091BB00F0E0E45EFD4F808390913D0285
:100EE00080913C029817C8F285E8D8CFE0913D0286
:100EF00081E08E0F80933D028091BB00F0E0E45EC4
:100F0000FD4F808380913F0281115CCF81E080930F
:100F10001A0284EA8093BC001092400226CF85EC2E
:100F20008093BC001092400280910102803230F424
:100F3000E0910102F0E0EF51FE4F1082609101025A
:100F400070E0E0910402F091050281EE91E00995D4
:100F5000109201020ACF10923E0234CF10926D021D
:100F600010926C0288EE93E0A0E0B0E080936E02F5
:100F700090936F02A0937002B093710226E231E069
:100F800030936B0220936A0225EC30E030937702B5
:100F90002093760224EC30E030937902209378029B
:100FA00020EC30E030937B0220937A0221EC30E099
:100FB00030937D0220937C0222EC30E030937F025C
:100FC00020937E0226EC30E0309381022093800251
:100FD000109283021092840210928502109286026F
:100FE00010920A031092090380930B0390930C0351
:100FF000A0930D03B0930E0388E391E09093080350
:10100000809307031092210310922503109224036A
:101010001092260386E591E09093200380931F03AE
:10102000EBE3F3E01082148213821582369683E09C
:10103000E737F807B9F783E091E090938203809354
:10104000810380E091E0909384038093830384E0A4
:101050008093850383E08093860387E091E09093FB
:10106000800380937F038AE090E0909388038093CD
:10107000870384EF91E090938A0380938903109211
:101080008D0310928C0310927B0310927C031092BC
:101090007D0310927E0310928B0310921603109220
:1010A00015038AE491E0909314038093130380E284
:1010B0008093170380E180931C0382E080931D03DB
:1010C00010921E030895789484B5826084BD84B51F
:1010D000816084BD85B5826085BD85B5816085BD33
:1010E00080916E00816080936E00109281008091EB
:1010F0008100826080938100809181008160809373
:101100008100809180008160809380008091B10097
:1011100084608093B1008091B00081608093B000C2
:1011200080917A00846080937A0080917A00826056
:1011300080937A0080917A00816080937A00809118
:101140007A00806880937A001092C10010920702A2
:101150001092060210924702109269020E947403D4
:101160008DE392E090930302809302028EE392E07B
:101170009093050280930402E0917A02F0917B0241
:1011800082E08083E0917602F09177021082E09114
:101190007802F09179028FEC808310928202E091C4
:1011A0007E02F0917F0286E08083E0917C02F091E4
:1011B0007D02808180618083E0917C02F0917D02DC
:1011C000808188608083E0917C02F0917D02808143
:1011D00080688083E0917C02F0917D0280818F7D28
:1011E00080830E9474031092180380911D03823043
:1011F00018F098E09093180380931B0362E370E06B
:1012000080E090E00E94000260911E0383E193E081
:101210000E94200568EE73E080E090E00E940002EA
:1012200060E383E193E00E944305CBE4D6E4CE0182
:101230000197F1F760E383E193E00E944305219772
:10124000F1F760E383E193E00E94430583E592E0D8
:101250000197F1F760E283E193E00E94430560911A
:101260001803606240E083E193E00E945C0584E043
:101270008093190340E06CE083E193E00E945C05F9
:101280000E94A40582E080931A0340E066E083E1B7
:1012900093E00E945C0540E062E083E193E00E94FD
:1012A0005C058BE39FE10197F1F788E080931E03D3
:1012B00060E083E193E00E94200580E00E947305D6
:1012C0008CE591E00E94360581E00E94730586E678
:1012D00091E00E943605812C912C5401839442E2C6
:1012E000442E41E0542E50E0652E50E0752E51E022
:1012F00050938B038FB7F8944091160250911702C8
:1013000060911802709119028FBF80917B039091B8
:101310007C03A0917D03B0917E03481B590B6A0B9F
:101320007B0B8091870390918803B0E0A0E0841745
:101330009507A607B70708F018C1C0E0809185039C
:10134000C81760F4E0918103F0918203EC0FF11D66
:1013500062E080810E949F01CF5FF0CF312C8091AD
:101360008603381608F05FC0032D10E0E091830378
:10137000F0918403E00FF11F61E080810E949F01E2
:10138000E0918303F0918403E00FF11F60E080811E
:101390000E947101D501C401032C04C0880F991F5C
:1013A000AA1FBB1F0A94D2F76C017C01E094F09451
:1013B000212C809185032816F8F4C22DD0E0E0910D
:1013C0008103F0918203EC0FFD1F80810E94480190
:1013D0002496CC0FDD1FC15EDC4F892B41F4888140
:1013E00099818C299D29998388832394E2CF8881D0
:1013F00099818E219F21F7CFE0918303F09184039F
:10140000E00FF11F61E080810E94710180918303F0
:1014100090918403080F191F60E0F80180810E94F9
:101420009F0133949CCF0FE113E0F801878D90A1C9
:10143000892B31F4148E8FEF9FEF968F858F11A239
:10144000369693E0EB35F90789F7F12C8091850307
:10145000F81608F050C0E12CCF2DD0E0CC0FDD1FE6
:10146000C95DDC4F20918603E21608F042C0688116
:1014700079810E2C02C0769567950A94E2F7F29E68
:10148000900111242E0D311DEFE1F3E080E0458D38
:10149000568D2417350709F4C9C08F5F36968A30F8
:1014A000B1F760FF24C0EFE1F3E090E080E0448D0D
:1014B000411118C0E0917F03F0918003E20FF31F08
:1014C000408156E0589FF001599FF00D1124E15ED4
:1014D000FC4F448F368F258F10A2178E61E00E943B
:1014E000AF0005C0019636968A30910501F7E39466
:1014F000B9CFF394ABCF80E0F80191A19111892F7E
:101500000A5F1F4FF3E00B351F07B1F79FB7F89441
:1015100040911602509117026091180270911902C1
:101520009FBF40937B0350937C0360937D03709334
:101530007E038823D1F0809140038823B1F080910D
:101540003E0390913F03019781F420913B032111C9
:101550000FC06114710409F4CACE0E94A902882345
:1015600009F4C5CE0E940000C2CE10928B03F1CFC9
:101570002A3239F5EBE1F1E0A8E0B2E091918D91EA
:10158000981356C04E165F06C9F70E94A40580E066
:101590000E94730589E791E00E94360581E00E9470
:1015A000730581E691E00E94360591E09093460232
:1015B000E7E1E0936802109247021092690261E647
:1015C00016C02332D9F40E94A40580E00E9473055E
:1015D0008EE691E00E94360551E05093460287E185
:1015E00080936802109247021092690262E687E0D7
:1015F00093E00E94F1040E94B303ABCF80910F02ED
:1016000090911002079721F41092100210920F028D
:1016100080910F0290911002FC01E85FFD4F208342
:1016200001969093100280930F0293CF617057CF71
:101630000E94A40580E00E94730586E891E00E9464
:10164000360581E00E94730582E991E00E9436052B
:101650001092100210920F027CCFEE0FFF1F059028
:10166000F491E02D0994F894FFCF0D0C0B0A0908B2
:10167000073132333435363738392A3023000040C9
:1016800000140054003230323330320000000000C9
:10169000DF023F026C022C039D027B028F020000DE
:1016A0000000F104C40433059A04BD04AA049B0499
:1016B00000000000AF053F0233054C0300000000AE
:1016C000320236023A0243415341204F5247410011
:1016D000323032332053320053452041504147418C
:1016E0005241004249454E56454E49444F20410023
:1016F000434F4E54524153454E494100494E434F8A
:08170000525245435441000020
:107E0000112484B714BE81FFF0D085E080938100F7
:107E100082E08093C00088E18093C10086E0809377
:107E2000C20080E18093C4008EE0C9D0259A86E02C
:107E300020E33CEF91E0309385002093840096BBD3
:107E4000B09BFECF1D9AA8958150A9F7CC24DD24C4
:107E500088248394B5E0AB2EA1E19A2EF3E0BF2EE7
:107E6000A2D0813461F49FD0082FAFD0023811F036
:107E7000013811F484E001C083E08DD089C08234E0
:107E800011F484E103C0853419F485E0A6D080C0E4
:107E9000853579F488D0E82EFF2485D0082F10E0AE
:107EA000102F00270E291F29000F111F8ED06801E7
:107EB0006FC0863521F484E090D080E0DECF843638
:107EC00009F040C070D06FD0082F6DD080E0C81688
:107ED00080E7D80618F4F601B7BEE895C0E0D1E017
:107EE00062D089930C17E1F7F0E0CF16F0E7DF06D8
:107EF00018F0F601B7BEE89568D007B600FCFDCFD4
:107F0000A601A0E0B1E02C9130E011968C91119780
:107F100090E0982F8827822B932B1296FA010C0160
:107F200087BEE89511244E5F5F4FF1E0A038BF0790
:107F300051F7F601A7BEE89507B600FCFDCF97BE46
:107F4000E89526C08437B1F42ED02DD0F82E2BD052
:107F50003CD0F601EF2C8F010F5F1F4F84911BD097
:107F6000EA94F801C1F70894C11CD11CFA94CF0C13
:107F7000D11C0EC0853739F428D08EE10CD085E9AC
:107F80000AD08FE07ACF813511F488E018D01DD067
:107F900080E101D065CF982F8091C00085FFFCCF94
:107FA0009093C60008958091C00087FFFCCF809118
:107FB000C00084FD01C0A8958091C6000895E0E648
:107FC000F0E098E1908380830895EDDF803219F02E
:107FD00088E0F5DFFFCF84E1DECF1F93182FE3DFCA
:107FE0001150E9F7F2DF1F91089580E0E8DFEE27F6
:047FF000FF270994CA
:027FFE00040479
:00000001FF
