:100000000C944F010C9480010C9480010C9480019D
:100010000C9480010C9480010C9480010C9480015C
:100020000C9480010C9480010C9480010C9480014C
:100030000C9480010C9480010C9480010C9480013C
:100040000C9480010C9480010C9480010C9480012C
:100050000C9480010C9480010C9480010C94A804F1
:100060000C9480010C9480010C9480010C9480010C
:100070000C9480010C9480010C9480010C948001FC
:100080000C9480010C9480010C9480010C948001EC
:100090000C9480010C9480010C9480010C948001DC
:1000A0000C9480010C9480010C9480010C948001CC
:1000B0000C9480010C9480010C9480010C948001BC
:1000C0000C9480010C9480010C9480010C948001AC
:1000D0000C9480010C9480010C9480010C9480019C
:1000E0000C9480010C944E020C94E6060C94390298
:1000F0000C9448020C9417030C945C020C94330289
:100100000C9460020C94FB060C9413030C94DF0611
:100110000C9425070C942E070C94CF060C94A20483
:100120000C946E020C946A020C94F4060C94100762
:100130000C9452020C943D020C9478020C94090722
:100140000C94D6060C9445020C941E070C9466027F
:100150000C9448030C940F030C9473020C9441020A
:100160000C941A030C9402070C9447030C94580245
:100170000C9474020C94ED060C94170700002100F7
:10018000240027002A002D00300033000101000068
:10019000040107010A0100002200250028002B00AD
:1001A0002E003100340002010000050108010B019E
:1001B000000020002300260029002C002F00320020
:1001C00000010000030106010901050505050705F9
:1001D00008080808020202020A0A080804040404C3
:1001E00001010101010101010303030303030303EF
:1001F000040707070C0C0C0C0C0C0C0C020202027E
:1002000006060606060606060B0B0B0B0B0B0B0B66
:100210000102102020080810204010204080020118
:1002200002010804020101020408102040808040FD
:1002300020100804020180040201804020100804FC
:10024000020108040201010204081020408001029A
:1002500004081020408000000A0B02090C0D0E0853
:10026000070304010000000000000000000000007F
:10027000000000000000000000000000000000007E
:10028000000012111000000000000000000000003B
:100290000000000000000000000000002E071124F4
:1002A0001FBECFEFD1E2DEBFCDBF00E00CBF12E03A
:1002B000A0E0B2E0E0E6FFE000E00BBF02C0079084
:1002C0000D92AC3DB107D9F723E0ACEDB2E001C02F
:1002D0001D92AC36B207E1F711E0CFE4D1E000E0C7
:1002E00006C021970109802FFE010E94A607CE3487
:1002F000D10780E00807A9F70E94F2040C94AE072A
:100300000C94000096E0899FD0011124AB51BD4FA1
:1003100090967C936E935F9791E091969C939197C2
:10032000E0915203F091530390915103992339F0D6
:10033000309751F0811108C08091010319943097D2
:1003400019F05C968C91FACF0895CF92DF92EF92DC
:10035000FF920F931F9396E0899FF0011124EB51B8
:10036000FD4F11A2278D30A12130310551F178F0D8
:100370002230310509F451C02330310509F452C04F
:100380001F910F91FF90EF90DF90CF90089566231B
:10039000B9F361E070E00E9482012FB7F894809178
:1003A000E1029091E202A091E302B091E4022FBF3A
:1003B00080933D0390933E03A0933F03B09340038B
:1003C000DFCF9FB7F894C090E102D090E202E090B6
:1003D000E302F090E4029FBF00913D0310913E03C1
:1003E00020913F0330914003C01AD10AE20AF30A78
:1003F00000914F031091500330E020E00C151D05D3
:100400002E053F0550F462E070E01F910F91FF90C0
:10041000EF90DF90CF900C9482016111B1CF63E037
:1004200070E0F3CF70E060E0F0CF8150823108F0EF
:100430005AC0E82FF0E08827EF5DFD4F8F4F0C94F6
:10044000A60741024502330239023D027302480207
:100450004E02520258025C02600266026A02730295
:100460006E0274027802809180008F778093800002
:100470000895809180008F7DF9CF80918000877FE3
:10048000F5CF84B58F7784BD089584B58F7DFBCF7C
:100490008091B0008F778093B00008958091B00074
:1004A0008F7DF9CF809190008F7780939000089591
:1004B000809190008F7DF9CF80919000877FF5CF5C
:1004C0008091A0008F778093A00008958091A00074
:1004D0008F7DF9CF8091A000877FF5CF809120019B
:1004E0008F77809320010895809120018F7DF9CF2F
:1004F00080912001877FF5CFCF93DF93282F30E0C5
:10050000F901EA5AFD4F8491F901E05FFD4FD49162
:10051000F901E653FE4FC491CC23A1F081110E9452
:100520001502EC2FF0E0EE0FFF1FE055FE4FA591F6
:10053000B491EC91ED2381E090E009F480E0DF914B
:10054000CF91089580E090E0FACF1F93CF93DF938F
:10055000282F30E0F901EA5AFD4F8491F901E05F5C
:10056000FD4FD491F901E653FE4FC491CC23A9F07D
:10057000162F81110E941502EC2FF0E0EE0FFF1FE5
:10058000EA56FE4FA591B4918FB7F894EC911111F2
:1005900008C0D095DE23DC938FBFDF91CF911F91F0
:1005A0000895DE2BF8CFCF93DF9390E0FC01E05F5E
:1005B000FD4F249186539E4FFC0184918823C9F0FE
:1005C00090E0880F991FFC01E458FE4FA591B4916B
:1005D000FC01EA56FE4FC591D49161110DC09FB741
:1005E000F8948C91209582238C93888128232883EA
:1005F0009FBFDF91CF910895623051F49FB7F89477
:100600003C91822F809583238C93E8812E2BEFCF12
:100610008FB7F894EC912E2B2C938FBFEACF862FB7
:10062000642F0C94D302862F642F0C94A502862F7E
:100630000C947C02AF92BF92CF92DF92EF92FF9226
:100640000F931F93CF93DF936C017B018B01040FFA
:10065000151FEB015E01AE18BF08C017D10759F096
:100660006991D601ED91FC910190F081E02DC601D8
:100670001995892B79F7C501DF91CF911F910F91C2
:10068000FF90EF90DF90CF90BF90AF9008950895C6
:1006900090E080E00895FC0101900020E9F7319797
:1006A000AF01481B590BBC0184E593E00C941A037D
:1006B000CF93DF93EC0160E08E810E94A50261E0A0
:1006C0008E810E94A50260E08E810E94A5028BE8C7
:1006D00091E00197F1F7DF91CF910895CF92DF92EA
:1006E000EF92FF920F931F93CF93DF936C017C01E6
:1006F00087E0E80EF11CD0E0C0E0062F10E0B80162
:100700000C2E02C0759567950A94E2F76170F701A7
:1007100081917F010E94A5022196C430D10579F70D
:10072000C601DF91CF911F910F91FF90EF90DF9065
:10073000CF900C945803CF92DF92EF92FF920F93D9
:100740001F93CF93DF93EC01F62E642F8C810E94D0
:10075000A5028D818F3F19F060E00E94A5020F2D48
:1007600010E08F8584FF25C06E0187E0C80ED11C84
:10077000F12CE12CB8010E2C02C0759567950A94F6
:10078000E2F76170F60181916F010E94A502FFEF0F
:10079000EF1AFF0A88E0E816F10461F7CE01DF9155
:1007A000CF911F910F91FF90EF90DF90CF900C941D
:1007B0005803B80184E0759567958A95E1F7CE01F5
:1007C0000E946E036F2DCE01DF91CF911F910F918B
:1007D000FF90EF90DF90CF900C946E0340E0682F75
:1007E00084E593E00C949B0381E00E94EE038BE38D
:1007F0009FE10197F1F70895CF93DF93609367032B
:100800001092680390E49093690380936A03805C7C
:1008100080936B0361E0809158030E94D302809122
:1008200059038F3F19F061E00E94D30261E080918B
:100830005A030E94D302C4E5D3E09E0124553340FD
:100840008091630384FD0BC084E090E0219628171B
:10085000390744F461E08E810E94D302EECF88E034
:1008600090E0F4CF8BE39DE00197F1F760E0809199
:1008700058030E94A50260E080915A030E94A502DD
:10088000809159038F3F19F060E00E94A50280918A
:10089000630384FD34C063E084E593E00E946E034B
:1008A000CBE4D6E4CE010197F1F763E084E593E071
:1008B0000E946E032197F1F763E084E593E00E94C4
:1008C0006E0383E592E00197F1F762E084E593E03F
:1008D0000E946E038091630380620E94EE0384E0B5
:1008E000809364038CE00E94EE030E94F40382E094
:1008F0008093650386E0DF91CF910C94EE038062D4
:100900000E94EE038BE496E40197F1F78091630374
:1009100080620E94EE0383E592E00197F1F78091F7
:10092000630380620E94EE03D5CFE1E0809167030C
:100930008111E0E0E195F0E0EC5AFC4F8489806899
:100940000C94EE0341E00E949B0381E090E0089547
:100950001F920F920FB60F9211242F933F938F93F4
:100960009F93AF93BF938091E1029091E202A09197
:10097000E302B091E4023091E00223E0230F2D372F
:1009800058F50196A11DB11D2093E0028093E1026C
:100990009093E202A093E302B093E4028091DC0220
:1009A0009091DD02A091DE02B091DF020196A11DBF
:1009B000B11D8093DC029093DD02A093DE02B09320
:1009C000DF02BF91AF919F918F913F912F910F9037
:1009D0000FBE0F901F90189526E8230F0296A11DB9
:1009E000B11DD2CF789484B5826084BD84B5816016
:1009F00084BD85B5826085BD85B5816085BD8091EA
:100A00006E00816080936E00109281008091810061
:100A10008260809381008091810081608093810059
:100A2000809180008160809380008091B10084601B
:100A30008093B1008091B00081608093B00080917C
:100A400091008260809391008091910081608093F9
:100A50009100809190008160809390008091A1002E
:100A600082608093A1008091A10081608093A100A9
:100A70008091A00081608093A0008091210182601C
:100A800080932101809121018160809321018091D7
:100A9000200181608093200180917A00846080939E
:100AA0007A0080917A00826080937A0080917A0047
:100AB000816080937A0080917A00806880937A00C8
:100AC0001092C10060E080E00E94FC030E94F403E9
:100AD0000E94950489E292E00E944B03812C912CA4
:100AE0005401839422242A94322C50E0652E50E045
:100AF000752E51E0509351038FB7F8944091E10265
:100B00005091E2026091E3027091E4028FBF809104
:100B1000410390914203A0914303B0914403481BC9
:100B2000590B6A0B7B0B80914D0390914E03B0E003
:100B3000A0E084179507A607B70708F02EC1C0E00C
:100B400080914B03C81760F4E0914703F09148038C
:100B5000EC0FF11D62E080810E94D302CF5FF0CFE5
:100B6000512C80914C03581608F05FC0052D10E001
:100B7000E0914903F0914A03E00FF11F61E08081A9
:100B80000E94D302E0914903F0914A03E00FF11F64
:100B900060E080810E94A502D501C401052C04C03B
:100BA000880F991FAA1FBB1F0A94D2F76C017C0102
:100BB000E094F094412C80914B034816F8F4C42D36
:100BC000D0E0E0914703F0914803EC0FFD1F8081D6
:100BD0000E947C022496CC0FDD1FCB51DD4F892B68
:100BE00041F4888199818C299D2999838883439434
:100BF000E2CF888199818E219F21F7CFE09149032F
:100C0000F0914A03E00FF11F61E080810E94A5028C
:100C10008091490390914A03080F191F60E0F80181
:100C200080810E94D30253949CCFC5EED2E0FE0196
:100C3000878D90A1892B21F4148E368E258E11A2DA
:100C4000369653E0E132F50799F710E080914B03B7
:100C5000181708F053C000E0E12EF12CEE0CFF1C39
:100C6000C70183519D4F7C0120914C03021708F06E
:100C700043C0F70160817181002E02C076956795AF
:100C80000A94E2F7129F90011124200F311DE5EE26
:100C9000F2E080E0458D568D2417350709F4DCC05D
:100CA0008F5F36968A30B1F760FF24C0E5EEF2E040
:100CB00090E080E0448D411118C0E0914503F0912F
:100CC0004603E20FF31F408156E0589FF001599F01
:100CD000F00D1124EB51FD4F448F368F258F10A25C
:100CE000178E61E00E94A50105C0019636968A30F4
:100CF000910501F70F5FB8CF1F5FA8CF80E099A1E2
:100D00009111892F269693E0C132D907C1F79FB779
:100D1000F8944091E1025091E2026091E3027091F7
:100D2000E4029FBF40934103509342036093430307
:100D300070934403882309F430C08091060388230C
:100D400009F42BC08091040390910503019729F5C4
:100D5000E0910103E352E73110F50E2E000CFF0B7A
:100D60008827EA54F94F8F4F0C94A607DF06CF0669
:100D7000CF06CF06CF06CF06CF06D606CF06CF06C4
:100D8000CF06CF06CF06E606ED06F406FB06020701
:100D90000907100717071E07250710925103611452
:100DA000710409F4A6CE0E940000A3CE0E94F403B1
:100DB0000E94950484E392E00E944B03F0CF0E94CE
:100DC000F4030E94950482E492E0F6CF0E94F403BB
:100DD0000E94950480E592E0EFCF0E94F4030E9408
:100DE00095048EE592E0E8CF0E94F4030E949504FA
:100DF0008CE692E0E1CF0E94F4030E9495048AE71A
:100E000092E0DACF0E94F4030E94950488E892E011
:100E1000D3CF0E94F4030E94950486E992E0CCCFE0
:100E20000E94F4030E94950484EA92E0C5CF0E94D8
:100E3000F4030E94950482EB92E0BECF0E94F4037B
:100E40000E94950480EC92E0B7CF0E94F4030E94C8
:100E500095048EEC92E0B0CF617044CF1092E7021F
:100E60001092EB021092EA021092EC0283E292E0FE
:100E70009093E6028093E502E1E0F3E010821482B1
:100E800013821582369683E0ED33F807B9F783E0D5
:100E900092E0909348038093470380E092E0909320
:100EA0004A038093490384E080934B0383E080935B
:100EB0004C0387E092E090934603809345038AE0D9
:100EC00090E090934E0380934D0384EF91E09093D4
:100ED000500380934F0310925303109252031092C9
:100EE0004103109242031092430310924403109264
:100EF0005103109257031092560387E192E09093AA
:100F00005503809354038DE0809358038FEF8093B3
:100F100059038CE080935A038BE080935B038AE053
:100F200080935C0389E080935D0388E080935E0397
:100F300010925F031092600310926103109262039B
:100F40001092630361E080E10C94FC03EE0FFF1F3D
:100F5000881F8BBF0790F691E02D1994F894FFCF6E
:100F60000706050403020131323334353637383988
:100F70002A302300000000A2041A0348034703009C
:100F80000000000F0313031703686F6C61206D7579
:100F90006E646F0073652070726563696F6E6F2099
:100FA0002A0073652070726563696F6E6F2023007D
:100FB00073652070726563696F6E6F2030007365B2
:100FC0002070726563696F6E6F20310073652070E9
:100FD000726563696F6E6F20320073652070726591
:100FE00063696F6E6F20330073652070726563698B
:100FF0006F6E6F20340073652070726563696F6E69
:101000006F20350073652070726563696F6E6F20A5
:10101000360073652070726563696F6E6F203700EC
:1010200073652070726563696F6E6F203800736539
:0C1030002070726563696F6E6F203900DC
:00000001FF
